{
	"Assignment 2/q9.sol": {
		"TransactionLedger": {
			"abi": [
				{
					"anonymous": false,
					"inputs": [
						{
							"indexed": true,
							"internalType": "address",
							"name": "sender",
							"type": "address"
						},
						{
							"indexed": true,
							"internalType": "address",
							"name": "receiver",
							"type": "address"
						},
						{
							"indexed": false,
							"internalType": "uint256",
							"name": "amount",
							"type": "uint256"
						},
						{
							"indexed": false,
							"internalType": "uint256",
							"name": "timestamp",
							"type": "uint256"
						}
					],
					"name": "TransactionRecorded",
					"type": "event"
				},
				{
					"inputs": [
						{
							"internalType": "uint256",
							"name": "index",
							"type": "uint256"
						}
					],
					"name": "getTransaction",
					"outputs": [
						{
							"internalType": "address",
							"name": "sender",
							"type": "address"
						},
						{
							"internalType": "address",
							"name": "receiver",
							"type": "address"
						},
						{
							"internalType": "uint256",
							"name": "amount",
							"type": "uint256"
						},
						{
							"internalType": "uint256",
							"name": "timestamp",
							"type": "uint256"
						}
					],
					"stateMutability": "view",
					"type": "function"
				},
				{
					"inputs": [],
					"name": "getTransactionCount",
					"outputs": [
						{
							"internalType": "uint256",
							"name": "",
							"type": "uint256"
						}
					],
					"stateMutability": "view",
					"type": "function"
				},
				{
					"inputs": [
						{
							"internalType": "address",
							"name": "receiver",
							"type": "address"
						}
					],
					"name": "recordTransaction",
					"outputs": [],
					"stateMutability": "payable",
					"type": "function"
				}
			],
			"devdoc": {
				"kind": "dev",
				"methods": {},
				"version": 1
			},
			"evm": {
				"assembly": "    /* \"Assignment 2/q9.sol\":68:1969  contract TransactionLedger {... */\n  mstore(0x40, 0x80)\n  callvalue\n  dup1\n  iszero\n  tag_1\n  jumpi\n  0x00\n  dup1\n  revert\ntag_1:\n  pop\n  dataSize(sub_0)\n  dup1\n  dataOffset(sub_0)\n  0x00\n  codecopy\n  0x00\n  return\nstop\n\nsub_0: assembly {\n        /* \"Assignment 2/q9.sol\":68:1969  contract TransactionLedger {... */\n      mstore(0x40, 0x80)\n      jumpi(tag_1, lt(calldatasize, 0x04))\n      shr(0xe0, calldataload(0x00))\n      dup1\n      0x2e7700f0\n      eq\n      tag_2\n      jumpi\n      dup1\n      0x33ea3dc8\n      eq\n      tag_3\n      jumpi\n      dup1\n      0xabfbd2dc\n      eq\n      tag_4\n      jumpi\n    tag_1:\n      0x00\n      dup1\n      revert\n        /* \"Assignment 2/q9.sol\":1323:1429  function getTransactionCount() public view returns (uint256) {... */\n    tag_2:\n      callvalue\n      dup1\n      iszero\n      tag_5\n      jumpi\n      0x00\n      dup1\n      revert\n    tag_5:\n      pop\n      tag_6\n      tag_7\n      jump\t// in\n    tag_6:\n      mload(0x40)\n      tag_8\n      swap2\n      swap1\n      tag_9\n      jump\t// in\n    tag_8:\n      mload(0x40)\n      dup1\n      swap2\n      sub\n      swap1\n      return\n        /* \"Assignment 2/q9.sol\":1499:1966  function getTransaction(uint256 index) public view returns (address sender, address receiver, uint256 amount, uint256 timestamp) {... */\n    tag_3:\n      callvalue\n      dup1\n      iszero\n      tag_10\n      jumpi\n      0x00\n      dup1\n      revert\n    tag_10:\n      pop\n      tag_11\n      0x04\n      dup1\n      calldatasize\n      sub\n      dup2\n      add\n      swap1\n      tag_12\n      swap2\n      swap1\n      tag_13\n      jump\t// in\n    tag_12:\n      tag_14\n      jump\t// in\n    tag_11:\n      mload(0x40)\n      tag_15\n      swap5\n      swap4\n      swap3\n      swap2\n      swap1\n      tag_16\n      jump\t// in\n    tag_15:\n      mload(0x40)\n      dup1\n      swap2\n      sub\n      swap1\n      return\n        /* \"Assignment 2/q9.sol\":617:1255  function recordTransaction(address receiver) public payable {... */\n    tag_4:\n      tag_17\n      0x04\n      dup1\n      calldatasize\n      sub\n      dup2\n      add\n      swap1\n      tag_18\n      swap2\n      swap1\n      tag_19\n      jump\t// in\n    tag_18:\n      tag_20\n      jump\t// in\n    tag_17:\n      stop\n        /* \"Assignment 2/q9.sol\":1323:1429  function getTransactionCount() public view returns (uint256) {... */\n    tag_7:\n        /* \"Assignment 2/q9.sol\":1375:1382  uint256 */\n      0x00\n        /* \"Assignment 2/q9.sol\":1402:1414  transactions */\n      dup1\n        /* \"Assignment 2/q9.sol\":1402:1421  transactions.length */\n      dup1\n      sload\n      swap1\n      pop\n        /* \"Assignment 2/q9.sol\":1395:1421  return transactions.length */\n      swap1\n      pop\n        /* \"Assignment 2/q9.sol\":1323:1429  function getTransactionCount() public view returns (uint256) {... */\n      swap1\n      jump\t// out\n        /* \"Assignment 2/q9.sol\":1499:1966  function getTransaction(uint256 index) public view returns (address sender, address receiver, uint256 amount, uint256 timestamp) {... */\n    tag_14:\n        /* \"Assignment 2/q9.sol\":1559:1573  address sender */\n      0x00\n        /* \"Assignment 2/q9.sol\":1575:1591  address receiver */\n      dup1\n        /* \"Assignment 2/q9.sol\":1593:1607  uint256 amount */\n      0x00\n        /* \"Assignment 2/q9.sol\":1609:1626  uint256 timestamp */\n      dup1\n        /* \"Assignment 2/q9.sol\":1655:1667  transactions */\n      0x00\n        /* \"Assignment 2/q9.sol\":1655:1674  transactions.length */\n      dup1\n      sload\n      swap1\n      pop\n        /* \"Assignment 2/q9.sol\":1647:1652  index */\n      dup6\n        /* \"Assignment 2/q9.sol\":1647:1674  index < transactions.length */\n      lt\n        /* \"Assignment 2/q9.sol\":1639:1698  require(index < transactions.length, \"Index out of bounds\") */\n      tag_23\n      jumpi\n      mload(0x40)\n      0x08c379a000000000000000000000000000000000000000000000000000000000\n      dup2\n      mstore\n      0x04\n      add\n      tag_24\n      swap1\n      tag_25\n      jump\t// in\n    tag_24:\n      mload(0x40)\n      dup1\n      swap2\n      sub\n      swap1\n      revert\n    tag_23:\n        /* \"Assignment 2/q9.sol\":1777:1813  Transaction storage transactionEntry */\n      0x00\n        /* \"Assignment 2/q9.sol\":1816:1828  transactions */\n      dup1\n        /* \"Assignment 2/q9.sol\":1829:1834  index */\n      dup7\n        /* \"Assignment 2/q9.sol\":1816:1835  transactions[index] */\n      dup2\n      sload\n      dup2\n      lt\n      tag_26\n      jumpi\n      tag_27\n      tag_28\n      jump\t// in\n    tag_27:\n    tag_26:\n      swap1\n      0x00\n      mstore\n      keccak256(0x00, 0x20)\n      swap1\n      0x04\n      mul\n      add\n        /* \"Assignment 2/q9.sol\":1777:1835  Transaction storage transactionEntry = transactions[index] */\n      swap1\n      pop\n        /* \"Assignment 2/q9.sol\":1854:1870  transactionEntry */\n      dup1\n        /* \"Assignment 2/q9.sol\":1854:1877  transactionEntry.sender */\n      0x00\n      add\n      0x00\n      swap1\n      sload\n      swap1\n      0x0100\n      exp\n      swap1\n      div\n      0xffffffffffffffffffffffffffffffffffffffff\n      and\n        /* \"Assignment 2/q9.sol\":1879:1895  transactionEntry */\n      dup2\n        /* \"Assignment 2/q9.sol\":1879:1904  transactionEntry.receiver */\n      0x01\n      add\n      0x00\n      swap1\n      sload\n      swap1\n      0x0100\n      exp\n      swap1\n      div\n      0xffffffffffffffffffffffffffffffffffffffff\n      and\n        /* \"Assignment 2/q9.sol\":1906:1922  transactionEntry */\n      dup3\n        /* \"Assignment 2/q9.sol\":1906:1929  transactionEntry.amount */\n      0x02\n      add\n      sload\n        /* \"Assignment 2/q9.sol\":1931:1947  transactionEntry */\n      dup4\n        /* \"Assignment 2/q9.sol\":1931:1957  transactionEntry.timestamp */\n      0x03\n      add\n      sload\n        /* \"Assignment 2/q9.sol\":1846:1958  return (transactionEntry.sender, transactionEntry.receiver, transactionEntry.amount, transactionEntry.timestamp) */\n      swap5\n      pop\n      swap5\n      pop\n      swap5\n      pop\n      swap5\n      pop\n      pop\n        /* \"Assignment 2/q9.sol\":1499:1966  function getTransaction(uint256 index) public view returns (address sender, address receiver, uint256 amount, uint256 timestamp) {... */\n      swap2\n      swap4\n      pop\n      swap2\n      swap4\n      jump\t// out\n        /* \"Assignment 2/q9.sol\":617:1255  function recordTransaction(address receiver) public payable {... */\n    tag_20:\n        /* \"Assignment 2/q9.sol\":708:709  0 */\n      0x00\n        /* \"Assignment 2/q9.sol\":696:705  msg.value */\n      callvalue\n        /* \"Assignment 2/q9.sol\":696:709  msg.value > 0 */\n      gt\n        /* \"Assignment 2/q9.sol\":688:758  require(msg.value > 0, \"Transaction amount must be greater than zero\") */\n      tag_31\n      jumpi\n      mload(0x40)\n      0x08c379a000000000000000000000000000000000000000000000000000000000\n      dup2\n      mstore\n      0x04\n      add\n      tag_32\n      swap1\n      tag_33\n      jump\t// in\n    tag_32:\n      mload(0x40)\n      dup1\n      swap2\n      sub\n      swap1\n      revert\n    tag_31:\n        /* \"Assignment 2/q9.sol\":814:847  Transaction memory newTransaction */\n      0x00\n        /* \"Assignment 2/q9.sol\":850:1013  Transaction({... */\n      mload(0x40)\n      dup1\n      0x80\n      add\n      0x40\n      mstore\n      dup1\n        /* \"Assignment 2/q9.sol\":885:895  msg.sender */\n      caller\n        /* \"Assignment 2/q9.sol\":850:1013  Transaction({... */\n      0xffffffffffffffffffffffffffffffffffffffff\n      and\n      dup2\n      mstore\n      0x20\n      add\n        /* \"Assignment 2/q9.sol\":920:928  receiver */\n      dup4\n        /* \"Assignment 2/q9.sol\":850:1013  Transaction({... */\n      0xffffffffffffffffffffffffffffffffffffffff\n      and\n      dup2\n      mstore\n      0x20\n      add\n        /* \"Assignment 2/q9.sol\":951:960  msg.value */\n      callvalue\n        /* \"Assignment 2/q9.sol\":850:1013  Transaction({... */\n      dup2\n      mstore\n      0x20\n      add\n        /* \"Assignment 2/q9.sol\":986:1001  block.timestamp */\n      timestamp\n        /* \"Assignment 2/q9.sol\":850:1013  Transaction({... */\n      dup2\n      mstore\n      pop\n        /* \"Assignment 2/q9.sol\":814:1013  Transaction memory newTransaction = Transaction({... */\n      swap1\n      pop\n        /* \"Assignment 2/q9.sol\":1076:1088  transactions */\n      0x00\n        /* \"Assignment 2/q9.sol\":1094:1108  newTransaction */\n      dup2\n        /* \"Assignment 2/q9.sol\":1076:1109  transactions.push(newTransaction) */\n      swap1\n      dup1\n      0x01\n      dup2\n      sload\n      add\n      dup1\n      dup3\n      sstore\n      dup1\n      swap2\n      pop\n      pop\n      0x01\n      swap1\n      sub\n      swap1\n      0x00\n      mstore\n      keccak256(0x00, 0x20)\n      swap1\n      0x04\n      mul\n      add\n      0x00\n      swap1\n      swap2\n      swap1\n      swap2\n      swap1\n      swap2\n      pop\n      0x00\n      dup3\n      add\n      mload\n      dup2\n      0x00\n      add\n      exp(0x0100, 0x00)\n      dup2\n      sload\n      dup2\n      0xffffffffffffffffffffffffffffffffffffffff\n      mul\n      not\n      and\n      swap1\n      dup4\n      0xffffffffffffffffffffffffffffffffffffffff\n      and\n      mul\n      or\n      swap1\n      sstore\n      pop\n      0x20\n      dup3\n      add\n      mload\n      dup2\n      0x01\n      add\n      exp(0x0100, 0x00)\n      dup2\n      sload\n      dup2\n      0xffffffffffffffffffffffffffffffffffffffff\n      mul\n      not\n      and\n      swap1\n      dup4\n      0xffffffffffffffffffffffffffffffffffffffff\n      and\n      mul\n      or\n      swap1\n      sstore\n      pop\n      0x40\n      dup3\n      add\n      mload\n      dup2\n      0x02\n      add\n      sstore\n      0x60\n      dup3\n      add\n      mload\n      dup2\n      0x03\n      add\n      sstore\n      pop\n      pop\n        /* \"Assignment 2/q9.sol\":1210:1218  receiver */\n      dup2\n        /* \"Assignment 2/q9.sol\":1178:1247  TransactionRecorded(msg.sender, receiver, msg.value, block.timestamp) */\n      0xffffffffffffffffffffffffffffffffffffffff\n      and\n        /* \"Assignment 2/q9.sol\":1198:1208  msg.sender */\n      caller\n        /* \"Assignment 2/q9.sol\":1178:1247  TransactionRecorded(msg.sender, receiver, msg.value, block.timestamp) */\n      0xffffffffffffffffffffffffffffffffffffffff\n      and\n      0xa8748c52a921be2a4c654a712d28d92cc72cdf91cea2d11b407d25e9ea18251e\n        /* \"Assignment 2/q9.sol\":1220:1229  msg.value */\n      callvalue\n        /* \"Assignment 2/q9.sol\":1231:1246  block.timestamp */\n      timestamp\n        /* \"Assignment 2/q9.sol\":1178:1247  TransactionRecorded(msg.sender, receiver, msg.value, block.timestamp) */\n      mload(0x40)\n      tag_35\n      swap3\n      swap2\n      swap1\n      tag_36\n      jump\t// in\n    tag_35:\n      mload(0x40)\n      dup1\n      swap2\n      sub\n      swap1\n      log3\n        /* \"Assignment 2/q9.sol\":677:1255  {... */\n      pop\n        /* \"Assignment 2/q9.sol\":617:1255  function recordTransaction(address receiver) public payable {... */\n      pop\n      jump\t// out\n        /* \"#utility.yul\":7:84   */\n    tag_37:\n        /* \"#utility.yul\":44:51   */\n      0x00\n        /* \"#utility.yul\":73:78   */\n      dup2\n        /* \"#utility.yul\":62:78   */\n      swap1\n      pop\n        /* \"#utility.yul\":7:84   */\n      swap2\n      swap1\n      pop\n      jump\t// out\n        /* \"#utility.yul\":90:208   */\n    tag_38:\n        /* \"#utility.yul\":177:201   */\n      tag_57\n        /* \"#utility.yul\":195:200   */\n      dup2\n        /* \"#utility.yul\":177:201   */\n      tag_37\n      jump\t// in\n    tag_57:\n        /* \"#utility.yul\":172:175   */\n      dup3\n        /* \"#utility.yul\":165:202   */\n      mstore\n        /* \"#utility.yul\":90:208   */\n      pop\n      pop\n      jump\t// out\n        /* \"#utility.yul\":214:436   */\n    tag_9:\n        /* \"#utility.yul\":307:311   */\n      0x00\n        /* \"#utility.yul\":345:347   */\n      0x20\n        /* \"#utility.yul\":334:343   */\n      dup3\n        /* \"#utility.yul\":330:348   */\n      add\n        /* \"#utility.yul\":322:348   */\n      swap1\n      pop\n        /* \"#utility.yul\":358:429   */\n      tag_59\n        /* \"#utility.yul\":426:427   */\n      0x00\n        /* \"#utility.yul\":415:424   */\n      dup4\n        /* \"#utility.yul\":411:428   */\n      add\n        /* \"#utility.yul\":402:408   */\n      dup5\n        /* \"#utility.yul\":358:429   */\n      tag_38\n      jump\t// in\n    tag_59:\n        /* \"#utility.yul\":214:436   */\n      swap3\n      swap2\n      pop\n      pop\n      jump\t// out\n        /* \"#utility.yul\":523:640   */\n    tag_40:\n        /* \"#utility.yul\":632:633   */\n      0x00\n        /* \"#utility.yul\":629:630   */\n      dup1\n        /* \"#utility.yul\":622:634   */\n      revert\n        /* \"#utility.yul\":769:891   */\n    tag_42:\n        /* \"#utility.yul\":842:866   */\n      tag_64\n        /* \"#utility.yul\":860:865   */\n      dup2\n        /* \"#utility.yul\":842:866   */\n      tag_37\n      jump\t// in\n    tag_64:\n        /* \"#utility.yul\":835:840   */\n      dup2\n        /* \"#utility.yul\":832:867   */\n      eq\n        /* \"#utility.yul\":822:885   */\n      tag_65\n      jumpi\n        /* \"#utility.yul\":881:882   */\n      0x00\n        /* \"#utility.yul\":878:879   */\n      dup1\n        /* \"#utility.yul\":871:883   */\n      revert\n        /* \"#utility.yul\":822:885   */\n    tag_65:\n        /* \"#utility.yul\":769:891   */\n      pop\n      jump\t// out\n        /* \"#utility.yul\":897:1036   */\n    tag_43:\n        /* \"#utility.yul\":943:948   */\n      0x00\n        /* \"#utility.yul\":981:987   */\n      dup2\n        /* \"#utility.yul\":968:988   */\n      calldataload\n        /* \"#utility.yul\":959:988   */\n      swap1\n      pop\n        /* \"#utility.yul\":997:1030   */\n      tag_67\n        /* \"#utility.yul\":1024:1029   */\n      dup2\n        /* \"#utility.yul\":997:1030   */\n      tag_42\n      jump\t// in\n    tag_67:\n        /* \"#utility.yul\":897:1036   */\n      swap3\n      swap2\n      pop\n      pop\n      jump\t// out\n        /* \"#utility.yul\":1042:1371   */\n    tag_13:\n        /* \"#utility.yul\":1101:1107   */\n      0x00\n        /* \"#utility.yul\":1150:1152   */\n      0x20\n        /* \"#utility.yul\":1138:1147   */\n      dup3\n        /* \"#utility.yul\":1129:1136   */\n      dup5\n        /* \"#utility.yul\":1125:1148   */\n      sub\n        /* \"#utility.yul\":1121:1153   */\n      slt\n        /* \"#utility.yul\":1118:1237   */\n      iszero\n      tag_69\n      jumpi\n        /* \"#utility.yul\":1156:1235   */\n      tag_70\n      tag_40\n      jump\t// in\n    tag_70:\n        /* \"#utility.yul\":1118:1237   */\n    tag_69:\n        /* \"#utility.yul\":1276:1277   */\n      0x00\n        /* \"#utility.yul\":1301:1354   */\n      tag_71\n        /* \"#utility.yul\":1346:1353   */\n      dup5\n        /* \"#utility.yul\":1337:1343   */\n      dup3\n        /* \"#utility.yul\":1326:1335   */\n      dup6\n        /* \"#utility.yul\":1322:1344   */\n      add\n        /* \"#utility.yul\":1301:1354   */\n      tag_43\n      jump\t// in\n    tag_71:\n        /* \"#utility.yul\":1291:1354   */\n      swap2\n      pop\n        /* \"#utility.yul\":1247:1364   */\n      pop\n        /* \"#utility.yul\":1042:1371   */\n      swap3\n      swap2\n      pop\n      pop\n      jump\t// out\n        /* \"#utility.yul\":1377:1503   */\n    tag_44:\n        /* \"#utility.yul\":1414:1421   */\n      0x00\n        /* \"#utility.yul\":1454:1496   */\n      0xffffffffffffffffffffffffffffffffffffffff\n        /* \"#utility.yul\":1447:1452   */\n      dup3\n        /* \"#utility.yul\":1443:1497   */\n      and\n        /* \"#utility.yul\":1432:1497   */\n      swap1\n      pop\n        /* \"#utility.yul\":1377:1503   */\n      swap2\n      swap1\n      pop\n      jump\t// out\n        /* \"#utility.yul\":1509:1605   */\n    tag_45:\n        /* \"#utility.yul\":1546:1553   */\n      0x00\n        /* \"#utility.yul\":1575:1599   */\n      tag_74\n        /* \"#utility.yul\":1593:1598   */\n      dup3\n        /* \"#utility.yul\":1575:1599   */\n      tag_44\n      jump\t// in\n    tag_74:\n        /* \"#utility.yul\":1564:1599   */\n      swap1\n      pop\n        /* \"#utility.yul\":1509:1605   */\n      swap2\n      swap1\n      pop\n      jump\t// out\n        /* \"#utility.yul\":1611:1729   */\n    tag_46:\n        /* \"#utility.yul\":1698:1722   */\n      tag_76\n        /* \"#utility.yul\":1716:1721   */\n      dup2\n        /* \"#utility.yul\":1698:1722   */\n      tag_45\n      jump\t// in\n    tag_76:\n        /* \"#utility.yul\":1693:1696   */\n      dup3\n        /* \"#utility.yul\":1686:1723   */\n      mstore\n        /* \"#utility.yul\":1611:1729   */\n      pop\n      pop\n      jump\t// out\n        /* \"#utility.yul\":1735:2288   */\n    tag_16:\n        /* \"#utility.yul\":1912:1916   */\n      0x00\n        /* \"#utility.yul\":1950:1953   */\n      0x80\n        /* \"#utility.yul\":1939:1948   */\n      dup3\n        /* \"#utility.yul\":1935:1954   */\n      add\n        /* \"#utility.yul\":1927:1954   */\n      swap1\n      pop\n        /* \"#utility.yul\":1964:2035   */\n      tag_78\n        /* \"#utility.yul\":2032:2033   */\n      0x00\n        /* \"#utility.yul\":2021:2030   */\n      dup4\n        /* \"#utility.yul\":2017:2034   */\n      add\n        /* \"#utility.yul\":2008:2014   */\n      dup8\n        /* \"#utility.yul\":1964:2035   */\n      tag_46\n      jump\t// in\n    tag_78:\n        /* \"#utility.yul\":2045:2117   */\n      tag_79\n        /* \"#utility.yul\":2113:2115   */\n      0x20\n        /* \"#utility.yul\":2102:2111   */\n      dup4\n        /* \"#utility.yul\":2098:2116   */\n      add\n        /* \"#utility.yul\":2089:2095   */\n      dup7\n        /* \"#utility.yul\":2045:2117   */\n      tag_46\n      jump\t// in\n    tag_79:\n        /* \"#utility.yul\":2127:2199   */\n      tag_80\n        /* \"#utility.yul\":2195:2197   */\n      0x40\n        /* \"#utility.yul\":2184:2193   */\n      dup4\n        /* \"#utility.yul\":2180:2198   */\n      add\n        /* \"#utility.yul\":2171:2177   */\n      dup6\n        /* \"#utility.yul\":2127:2199   */\n      tag_38\n      jump\t// in\n    tag_80:\n        /* \"#utility.yul\":2209:2281   */\n      tag_81\n        /* \"#utility.yul\":2277:2279   */\n      0x60\n        /* \"#utility.yul\":2266:2275   */\n      dup4\n        /* \"#utility.yul\":2262:2280   */\n      add\n        /* \"#utility.yul\":2253:2259   */\n      dup5\n        /* \"#utility.yul\":2209:2281   */\n      tag_38\n      jump\t// in\n    tag_81:\n        /* \"#utility.yul\":1735:2288   */\n      swap6\n      swap5\n      pop\n      pop\n      pop\n      pop\n      pop\n      jump\t// out\n        /* \"#utility.yul\":2294:2416   */\n    tag_47:\n        /* \"#utility.yul\":2367:2391   */\n      tag_83\n        /* \"#utility.yul\":2385:2390   */\n      dup2\n        /* \"#utility.yul\":2367:2391   */\n      tag_45\n      jump\t// in\n    tag_83:\n        /* \"#utility.yul\":2360:2365   */\n      dup2\n        /* \"#utility.yul\":2357:2392   */\n      eq\n        /* \"#utility.yul\":2347:2410   */\n      tag_84\n      jumpi\n        /* \"#utility.yul\":2406:2407   */\n      0x00\n        /* \"#utility.yul\":2403:2404   */\n      dup1\n        /* \"#utility.yul\":2396:2408   */\n      revert\n        /* \"#utility.yul\":2347:2410   */\n    tag_84:\n        /* \"#utility.yul\":2294:2416   */\n      pop\n      jump\t// out\n        /* \"#utility.yul\":2422:2561   */\n    tag_48:\n        /* \"#utility.yul\":2468:2473   */\n      0x00\n        /* \"#utility.yul\":2506:2512   */\n      dup2\n        /* \"#utility.yul\":2493:2513   */\n      calldataload\n        /* \"#utility.yul\":2484:2513   */\n      swap1\n      pop\n        /* \"#utility.yul\":2522:2555   */\n      tag_86\n        /* \"#utility.yul\":2549:2554   */\n      dup2\n        /* \"#utility.yul\":2522:2555   */\n      tag_47\n      jump\t// in\n    tag_86:\n        /* \"#utility.yul\":2422:2561   */\n      swap3\n      swap2\n      pop\n      pop\n      jump\t// out\n        /* \"#utility.yul\":2567:2896   */\n    tag_19:\n        /* \"#utility.yul\":2626:2632   */\n      0x00\n        /* \"#utility.yul\":2675:2677   */\n      0x20\n        /* \"#utility.yul\":2663:2672   */\n      dup3\n        /* \"#utility.yul\":2654:2661   */\n      dup5\n        /* \"#utility.yul\":2650:2673   */\n      sub\n        /* \"#utility.yul\":2646:2678   */\n      slt\n        /* \"#utility.yul\":2643:2762   */\n      iszero\n      tag_88\n      jumpi\n        /* \"#utility.yul\":2681:2760   */\n      tag_89\n      tag_40\n      jump\t// in\n    tag_89:\n        /* \"#utility.yul\":2643:2762   */\n    tag_88:\n        /* \"#utility.yul\":2801:2802   */\n      0x00\n        /* \"#utility.yul\":2826:2879   */\n      tag_90\n        /* \"#utility.yul\":2871:2878   */\n      dup5\n        /* \"#utility.yul\":2862:2868   */\n      dup3\n        /* \"#utility.yul\":2851:2860   */\n      dup6\n        /* \"#utility.yul\":2847:2869   */\n      add\n        /* \"#utility.yul\":2826:2879   */\n      tag_48\n      jump\t// in\n    tag_90:\n        /* \"#utility.yul\":2816:2879   */\n      swap2\n      pop\n        /* \"#utility.yul\":2772:2889   */\n      pop\n        /* \"#utility.yul\":2567:2896   */\n      swap3\n      swap2\n      pop\n      pop\n      jump\t// out\n        /* \"#utility.yul\":2902:3071   */\n    tag_49:\n        /* \"#utility.yul\":2986:2997   */\n      0x00\n        /* \"#utility.yul\":3020:3026   */\n      dup3\n        /* \"#utility.yul\":3015:3018   */\n      dup3\n        /* \"#utility.yul\":3008:3027   */\n      mstore\n        /* \"#utility.yul\":3060:3064   */\n      0x20\n        /* \"#utility.yul\":3055:3058   */\n      dup3\n        /* \"#utility.yul\":3051:3065   */\n      add\n        /* \"#utility.yul\":3036:3065   */\n      swap1\n      pop\n        /* \"#utility.yul\":2902:3071   */\n      swap3\n      swap2\n      pop\n      pop\n      jump\t// out\n        /* \"#utility.yul\":3077:3246   */\n    tag_50:\n        /* \"#utility.yul\":3217:3238   */\n      0x496e646578206f7574206f6620626f756e647300000000000000000000000000\n        /* \"#utility.yul\":3213:3214   */\n      0x00\n        /* \"#utility.yul\":3205:3211   */\n      dup3\n        /* \"#utility.yul\":3201:3215   */\n      add\n        /* \"#utility.yul\":3194:3239   */\n      mstore\n        /* \"#utility.yul\":3077:3246   */\n      pop\n      jump\t// out\n        /* \"#utility.yul\":3252:3618   */\n    tag_51:\n        /* \"#utility.yul\":3394:3397   */\n      0x00\n        /* \"#utility.yul\":3415:3482   */\n      tag_94\n        /* \"#utility.yul\":3479:3481   */\n      0x13\n        /* \"#utility.yul\":3474:3477   */\n      dup4\n        /* \"#utility.yul\":3415:3482   */\n      tag_49\n      jump\t// in\n    tag_94:\n        /* \"#utility.yul\":3408:3482   */\n      swap2\n      pop\n        /* \"#utility.yul\":3491:3584   */\n      tag_95\n        /* \"#utility.yul\":3580:3583   */\n      dup3\n        /* \"#utility.yul\":3491:3584   */\n      tag_50\n      jump\t// in\n    tag_95:\n        /* \"#utility.yul\":3609:3611   */\n      0x20\n        /* \"#utility.yul\":3604:3607   */\n      dup3\n        /* \"#utility.yul\":3600:3612   */\n      add\n        /* \"#utility.yul\":3593:3612   */\n      swap1\n      pop\n        /* \"#utility.yul\":3252:3618   */\n      swap2\n      swap1\n      pop\n      jump\t// out\n        /* \"#utility.yul\":3624:4043   */\n    tag_25:\n        /* \"#utility.yul\":3790:3794   */\n      0x00\n        /* \"#utility.yul\":3828:3830   */\n      0x20\n        /* \"#utility.yul\":3817:3826   */\n      dup3\n        /* \"#utility.yul\":3813:3831   */\n      add\n        /* \"#utility.yul\":3805:3831   */\n      swap1\n      pop\n        /* \"#utility.yul\":3877:3886   */\n      dup2\n        /* \"#utility.yul\":3871:3875   */\n      dup2\n        /* \"#utility.yul\":3867:3887   */\n      sub\n        /* \"#utility.yul\":3863:3864   */\n      0x00\n        /* \"#utility.yul\":3852:3861   */\n      dup4\n        /* \"#utility.yul\":3848:3865   */\n      add\n        /* \"#utility.yul\":3841:3888   */\n      mstore\n        /* \"#utility.yul\":3905:4036   */\n      tag_97\n        /* \"#utility.yul\":4031:4035   */\n      dup2\n        /* \"#utility.yul\":3905:4036   */\n      tag_51\n      jump\t// in\n    tag_97:\n        /* \"#utility.yul\":3897:4036   */\n      swap1\n      pop\n        /* \"#utility.yul\":3624:4043   */\n      swap2\n      swap1\n      pop\n      jump\t// out\n        /* \"#utility.yul\":4049:4229   */\n    tag_28:\n        /* \"#utility.yul\":4097:4174   */\n      0x4e487b7100000000000000000000000000000000000000000000000000000000\n        /* \"#utility.yul\":4094:4095   */\n      0x00\n        /* \"#utility.yul\":4087:4175   */\n      mstore\n        /* \"#utility.yul\":4194:4198   */\n      0x32\n        /* \"#utility.yul\":4191:4192   */\n      0x04\n        /* \"#utility.yul\":4184:4199   */\n      mstore\n        /* \"#utility.yul\":4218:4222   */\n      0x24\n        /* \"#utility.yul\":4215:4216   */\n      0x00\n        /* \"#utility.yul\":4208:4223   */\n      revert\n        /* \"#utility.yul\":4235:4466   */\n    tag_52:\n        /* \"#utility.yul\":4375:4409   */\n      0x5472616e73616374696f6e20616d6f756e74206d757374206265206772656174\n        /* \"#utility.yul\":4371:4372   */\n      0x00\n        /* \"#utility.yul\":4363:4369   */\n      dup3\n        /* \"#utility.yul\":4359:4373   */\n      add\n        /* \"#utility.yul\":4352:4410   */\n      mstore\n        /* \"#utility.yul\":4444:4458   */\n      0x6572207468616e207a65726f0000000000000000000000000000000000000000\n        /* \"#utility.yul\":4439:4441   */\n      0x20\n        /* \"#utility.yul\":4431:4437   */\n      dup3\n        /* \"#utility.yul\":4427:4442   */\n      add\n        /* \"#utility.yul\":4420:4459   */\n      mstore\n        /* \"#utility.yul\":4235:4466   */\n      pop\n      jump\t// out\n        /* \"#utility.yul\":4472:4838   */\n    tag_53:\n        /* \"#utility.yul\":4614:4617   */\n      0x00\n        /* \"#utility.yul\":4635:4702   */\n      tag_101\n        /* \"#utility.yul\":4699:4701   */\n      0x2c\n        /* \"#utility.yul\":4694:4697   */\n      dup4\n        /* \"#utility.yul\":4635:4702   */\n      tag_49\n      jump\t// in\n    tag_101:\n        /* \"#utility.yul\":4628:4702   */\n      swap2\n      pop\n        /* \"#utility.yul\":4711:4804   */\n      tag_102\n        /* \"#utility.yul\":4800:4803   */\n      dup3\n        /* \"#utility.yul\":4711:4804   */\n      tag_52\n      jump\t// in\n    tag_102:\n        /* \"#utility.yul\":4829:4831   */\n      0x40\n        /* \"#utility.yul\":4824:4827   */\n      dup3\n        /* \"#utility.yul\":4820:4832   */\n      add\n        /* \"#utility.yul\":4813:4832   */\n      swap1\n      pop\n        /* \"#utility.yul\":4472:4838   */\n      swap2\n      swap1\n      pop\n      jump\t// out\n        /* \"#utility.yul\":4844:5263   */\n    tag_33:\n        /* \"#utility.yul\":5010:5014   */\n      0x00\n        /* \"#utility.yul\":5048:5050   */\n      0x20\n        /* \"#utility.yul\":5037:5046   */\n      dup3\n        /* \"#utility.yul\":5033:5051   */\n      add\n        /* \"#utility.yul\":5025:5051   */\n      swap1\n      pop\n        /* \"#utility.yul\":5097:5106   */\n      dup2\n        /* \"#utility.yul\":5091:5095   */\n      dup2\n        /* \"#utility.yul\":5087:5107   */\n      sub\n        /* \"#utility.yul\":5083:5084   */\n      0x00\n        /* \"#utility.yul\":5072:5081   */\n      dup4\n        /* \"#utility.yul\":5068:5085   */\n      add\n        /* \"#utility.yul\":5061:5108   */\n      mstore\n        /* \"#utility.yul\":5125:5256   */\n      tag_104\n        /* \"#utility.yul\":5251:5255   */\n      dup2\n        /* \"#utility.yul\":5125:5256   */\n      tag_53\n      jump\t// in\n    tag_104:\n        /* \"#utility.yul\":5117:5256   */\n      swap1\n      pop\n        /* \"#utility.yul\":4844:5263   */\n      swap2\n      swap1\n      pop\n      jump\t// out\n        /* \"#utility.yul\":5269:5601   */\n    tag_36:\n        /* \"#utility.yul\":5390:5394   */\n      0x00\n        /* \"#utility.yul\":5428:5430   */\n      0x40\n        /* \"#utility.yul\":5417:5426   */\n      dup3\n        /* \"#utility.yul\":5413:5431   */\n      add\n        /* \"#utility.yul\":5405:5431   */\n      swap1\n      pop\n        /* \"#utility.yul\":5441:5512   */\n      tag_106\n        /* \"#utility.yul\":5509:5510   */\n      0x00\n        /* \"#utility.yul\":5498:5507   */\n      dup4\n        /* \"#utility.yul\":5494:5511   */\n      add\n        /* \"#utility.yul\":5485:5491   */\n      dup6\n        /* \"#utility.yul\":5441:5512   */\n      tag_38\n      jump\t// in\n    tag_106:\n        /* \"#utility.yul\":5522:5594   */\n      tag_107\n        /* \"#utility.yul\":5590:5592   */\n      0x20\n        /* \"#utility.yul\":5579:5588   */\n      dup4\n        /* \"#utility.yul\":5575:5593   */\n      add\n        /* \"#utility.yul\":5566:5572   */\n      dup5\n        /* \"#utility.yul\":5522:5594   */\n      tag_38\n      jump\t// in\n    tag_107:\n        /* \"#utility.yul\":5269:5601   */\n      swap4\n      swap3\n      pop\n      pop\n      pop\n      jump\t// out\n\n    auxdata: 0xa2646970667358221220212ff758e6fa2c9ec457aae339577facc1eabe7116df8a15e077105266f63f3c64736f6c634300081a0033\n}\n",
				"bytecode": {
					"linkReferences": {},
					"object": "6080604052348015600e575f80fd5b5061064a8061001c5f395ff3fe608060405260043610610033575f3560e01c80632e7700f01461003757806333ea3dc814610061578063abfbd2dc146100a0575b5f80fd5b348015610042575f80fd5b5061004b6100bc565b6040516100589190610371565b60405180910390f35b34801561006c575f80fd5b50610087600480360381019061008291906103b8565b6100c7565b6040516100979493929190610422565b60405180910390f35b6100ba60048036038101906100b5919061048f565b610194565b005b5f8080549050905090565b5f805f805f805490508510610111576040517f08c379a000000000000000000000000000000000000000000000000000000000815260040161010890610514565b60405180910390fd5b5f80868154811061012557610124610532565b5b905f5260205f2090600402019050805f015f9054906101000a900473ffffffffffffffffffffffffffffffffffffffff16816001015f9054906101000a900473ffffffffffffffffffffffffffffffffffffffff16826002015483600301549450945094509450509193509193565b5f34116101d6576040517f08c379a00000000000000000000000000000000000000000000000000000000081526004016101cd906105cf565b60405180910390fd5b5f60405180608001604052803373ffffffffffffffffffffffffffffffffffffffff1681526020018373ffffffffffffffffffffffffffffffffffffffff1681526020013481526020014281525090505f81908060018154018082558091505060019003905f5260205f2090600402015f909190919091505f820151815f015f6101000a81548173ffffffffffffffffffffffffffffffffffffffff021916908373ffffffffffffffffffffffffffffffffffffffff1602179055506020820151816001015f6101000a81548173ffffffffffffffffffffffffffffffffffffffff021916908373ffffffffffffffffffffffffffffffffffffffff160217905550604082015181600201556060820151816003015550508173ffffffffffffffffffffffffffffffffffffffff163373ffffffffffffffffffffffffffffffffffffffff167fa8748c52a921be2a4c654a712d28d92cc72cdf91cea2d11b407d25e9ea18251e344260405161034d9291906105ed565b60405180910390a35050565b5f819050919050565b61036b81610359565b82525050565b5f6020820190506103845f830184610362565b92915050565b5f80fd5b61039781610359565b81146103a1575f80fd5b50565b5f813590506103b28161038e565b92915050565b5f602082840312156103cd576103cc61038a565b5b5f6103da848285016103a4565b91505092915050565b5f73ffffffffffffffffffffffffffffffffffffffff82169050919050565b5f61040c826103e3565b9050919050565b61041c81610402565b82525050565b5f6080820190506104355f830187610413565b6104426020830186610413565b61044f6040830185610362565b61045c6060830184610362565b95945050505050565b61046e81610402565b8114610478575f80fd5b50565b5f8135905061048981610465565b92915050565b5f602082840312156104a4576104a361038a565b5b5f6104b18482850161047b565b91505092915050565b5f82825260208201905092915050565b7f496e646578206f7574206f6620626f756e6473000000000000000000000000005f82015250565b5f6104fe6013836104ba565b9150610509826104ca565b602082019050919050565b5f6020820190508181035f83015261052b816104f2565b9050919050565b7f4e487b71000000000000000000000000000000000000000000000000000000005f52603260045260245ffd5b7f5472616e73616374696f6e20616d6f756e74206d7573742062652067726561745f8201527f6572207468616e207a65726f0000000000000000000000000000000000000000602082015250565b5f6105b9602c836104ba565b91506105c48261055f565b604082019050919050565b5f6020820190508181035f8301526105e6816105ad565b9050919050565b5f6040820190506106005f830185610362565b61060d6020830184610362565b939250505056fea2646970667358221220212ff758e6fa2c9ec457aae339577facc1eabe7116df8a15e077105266f63f3c64736f6c634300081a0033",
					"opcodes": "PUSH1 0x80 PUSH1 0x40 MSTORE CALLVALUE DUP1 ISZERO PUSH1 0xE JUMPI PUSH0 DUP1 REVERT JUMPDEST POP PUSH2 0x64A DUP1 PUSH2 0x1C PUSH0 CODECOPY PUSH0 RETURN INVALID PUSH1 0x80 PUSH1 0x40 MSTORE PUSH1 0x4 CALLDATASIZE LT PUSH2 0x33 JUMPI PUSH0 CALLDATALOAD PUSH1 0xE0 SHR DUP1 PUSH4 0x2E7700F0 EQ PUSH2 0x37 JUMPI DUP1 PUSH4 0x33EA3DC8 EQ PUSH2 0x61 JUMPI DUP1 PUSH4 0xABFBD2DC EQ PUSH2 0xA0 JUMPI JUMPDEST PUSH0 DUP1 REVERT JUMPDEST CALLVALUE DUP1 ISZERO PUSH2 0x42 JUMPI PUSH0 DUP1 REVERT JUMPDEST POP PUSH2 0x4B PUSH2 0xBC JUMP JUMPDEST PUSH1 0x40 MLOAD PUSH2 0x58 SWAP2 SWAP1 PUSH2 0x371 JUMP JUMPDEST PUSH1 0x40 MLOAD DUP1 SWAP2 SUB SWAP1 RETURN JUMPDEST CALLVALUE DUP1 ISZERO PUSH2 0x6C JUMPI PUSH0 DUP1 REVERT JUMPDEST POP PUSH2 0x87 PUSH1 0x4 DUP1 CALLDATASIZE SUB DUP2 ADD SWAP1 PUSH2 0x82 SWAP2 SWAP1 PUSH2 0x3B8 JUMP JUMPDEST PUSH2 0xC7 JUMP JUMPDEST PUSH1 0x40 MLOAD PUSH2 0x97 SWAP5 SWAP4 SWAP3 SWAP2 SWAP1 PUSH2 0x422 JUMP JUMPDEST PUSH1 0x40 MLOAD DUP1 SWAP2 SUB SWAP1 RETURN JUMPDEST PUSH2 0xBA PUSH1 0x4 DUP1 CALLDATASIZE SUB DUP2 ADD SWAP1 PUSH2 0xB5 SWAP2 SWAP1 PUSH2 0x48F JUMP JUMPDEST PUSH2 0x194 JUMP JUMPDEST STOP JUMPDEST PUSH0 DUP1 DUP1 SLOAD SWAP1 POP SWAP1 POP SWAP1 JUMP JUMPDEST PUSH0 DUP1 PUSH0 DUP1 PUSH0 DUP1 SLOAD SWAP1 POP DUP6 LT PUSH2 0x111 JUMPI PUSH1 0x40 MLOAD PUSH32 0x8C379A000000000000000000000000000000000000000000000000000000000 DUP2 MSTORE PUSH1 0x4 ADD PUSH2 0x108 SWAP1 PUSH2 0x514 JUMP JUMPDEST PUSH1 0x40 MLOAD DUP1 SWAP2 SUB SWAP1 REVERT JUMPDEST PUSH0 DUP1 DUP7 DUP2 SLOAD DUP2 LT PUSH2 0x125 JUMPI PUSH2 0x124 PUSH2 0x532 JUMP JUMPDEST JUMPDEST SWAP1 PUSH0 MSTORE PUSH1 0x20 PUSH0 KECCAK256 SWAP1 PUSH1 0x4 MUL ADD SWAP1 POP DUP1 PUSH0 ADD PUSH0 SWAP1 SLOAD SWAP1 PUSH2 0x100 EXP SWAP1 DIV PUSH20 0xFFFFFFFFFFFFFFFFFFFFFFFFFFFFFFFFFFFFFFFF AND DUP2 PUSH1 0x1 ADD PUSH0 SWAP1 SLOAD SWAP1 PUSH2 0x100 EXP SWAP1 DIV PUSH20 0xFFFFFFFFFFFFFFFFFFFFFFFFFFFFFFFFFFFFFFFF AND DUP3 PUSH1 0x2 ADD SLOAD DUP4 PUSH1 0x3 ADD SLOAD SWAP5 POP SWAP5 POP SWAP5 POP SWAP5 POP POP SWAP2 SWAP4 POP SWAP2 SWAP4 JUMP JUMPDEST PUSH0 CALLVALUE GT PUSH2 0x1D6 JUMPI PUSH1 0x40 MLOAD PUSH32 0x8C379A000000000000000000000000000000000000000000000000000000000 DUP2 MSTORE PUSH1 0x4 ADD PUSH2 0x1CD SWAP1 PUSH2 0x5CF JUMP JUMPDEST PUSH1 0x40 MLOAD DUP1 SWAP2 SUB SWAP1 REVERT JUMPDEST PUSH0 PUSH1 0x40 MLOAD DUP1 PUSH1 0x80 ADD PUSH1 0x40 MSTORE DUP1 CALLER PUSH20 0xFFFFFFFFFFFFFFFFFFFFFFFFFFFFFFFFFFFFFFFF AND DUP2 MSTORE PUSH1 0x20 ADD DUP4 PUSH20 0xFFFFFFFFFFFFFFFFFFFFFFFFFFFFFFFFFFFFFFFF AND DUP2 MSTORE PUSH1 0x20 ADD CALLVALUE DUP2 MSTORE PUSH1 0x20 ADD TIMESTAMP DUP2 MSTORE POP SWAP1 POP PUSH0 DUP2 SWAP1 DUP1 PUSH1 0x1 DUP2 SLOAD ADD DUP1 DUP3 SSTORE DUP1 SWAP2 POP POP PUSH1 0x1 SWAP1 SUB SWAP1 PUSH0 MSTORE PUSH1 0x20 PUSH0 KECCAK256 SWAP1 PUSH1 0x4 MUL ADD PUSH0 SWAP1 SWAP2 SWAP1 SWAP2 SWAP1 SWAP2 POP PUSH0 DUP3 ADD MLOAD DUP2 PUSH0 ADD PUSH0 PUSH2 0x100 EXP DUP2 SLOAD DUP2 PUSH20 0xFFFFFFFFFFFFFFFFFFFFFFFFFFFFFFFFFFFFFFFF MUL NOT AND SWAP1 DUP4 PUSH20 0xFFFFFFFFFFFFFFFFFFFFFFFFFFFFFFFFFFFFFFFF AND MUL OR SWAP1 SSTORE POP PUSH1 0x20 DUP3 ADD MLOAD DUP2 PUSH1 0x1 ADD PUSH0 PUSH2 0x100 EXP DUP2 SLOAD DUP2 PUSH20 0xFFFFFFFFFFFFFFFFFFFFFFFFFFFFFFFFFFFFFFFF MUL NOT AND SWAP1 DUP4 PUSH20 0xFFFFFFFFFFFFFFFFFFFFFFFFFFFFFFFFFFFFFFFF AND MUL OR SWAP1 SSTORE POP PUSH1 0x40 DUP3 ADD MLOAD DUP2 PUSH1 0x2 ADD SSTORE PUSH1 0x60 DUP3 ADD MLOAD DUP2 PUSH1 0x3 ADD SSTORE POP POP DUP2 PUSH20 0xFFFFFFFFFFFFFFFFFFFFFFFFFFFFFFFFFFFFFFFF AND CALLER PUSH20 0xFFFFFFFFFFFFFFFFFFFFFFFFFFFFFFFFFFFFFFFF AND PUSH32 0xA8748C52A921BE2A4C654A712D28D92CC72CDF91CEA2D11B407D25E9EA18251E CALLVALUE TIMESTAMP PUSH1 0x40 MLOAD PUSH2 0x34D SWAP3 SWAP2 SWAP1 PUSH2 0x5ED JUMP JUMPDEST PUSH1 0x40 MLOAD DUP1 SWAP2 SUB SWAP1 LOG3 POP POP JUMP JUMPDEST PUSH0 DUP2 SWAP1 POP SWAP2 SWAP1 POP JUMP JUMPDEST PUSH2 0x36B DUP2 PUSH2 0x359 JUMP JUMPDEST DUP3 MSTORE POP POP JUMP JUMPDEST PUSH0 PUSH1 0x20 DUP3 ADD SWAP1 POP PUSH2 0x384 PUSH0 DUP4 ADD DUP5 PUSH2 0x362 JUMP JUMPDEST SWAP3 SWAP2 POP POP JUMP JUMPDEST PUSH0 DUP1 REVERT JUMPDEST PUSH2 0x397 DUP2 PUSH2 0x359 JUMP JUMPDEST DUP2 EQ PUSH2 0x3A1 JUMPI PUSH0 DUP1 REVERT JUMPDEST POP JUMP JUMPDEST PUSH0 DUP2 CALLDATALOAD SWAP1 POP PUSH2 0x3B2 DUP2 PUSH2 0x38E JUMP JUMPDEST SWAP3 SWAP2 POP POP JUMP JUMPDEST PUSH0 PUSH1 0x20 DUP3 DUP5 SUB SLT ISZERO PUSH2 0x3CD JUMPI PUSH2 0x3CC PUSH2 0x38A JUMP JUMPDEST JUMPDEST PUSH0 PUSH2 0x3DA DUP5 DUP3 DUP6 ADD PUSH2 0x3A4 JUMP JUMPDEST SWAP2 POP POP SWAP3 SWAP2 POP POP JUMP JUMPDEST PUSH0 PUSH20 0xFFFFFFFFFFFFFFFFFFFFFFFFFFFFFFFFFFFFFFFF DUP3 AND SWAP1 POP SWAP2 SWAP1 POP JUMP JUMPDEST PUSH0 PUSH2 0x40C DUP3 PUSH2 0x3E3 JUMP JUMPDEST SWAP1 POP SWAP2 SWAP1 POP JUMP JUMPDEST PUSH2 0x41C DUP2 PUSH2 0x402 JUMP JUMPDEST DUP3 MSTORE POP POP JUMP JUMPDEST PUSH0 PUSH1 0x80 DUP3 ADD SWAP1 POP PUSH2 0x435 PUSH0 DUP4 ADD DUP8 PUSH2 0x413 JUMP JUMPDEST PUSH2 0x442 PUSH1 0x20 DUP4 ADD DUP7 PUSH2 0x413 JUMP JUMPDEST PUSH2 0x44F PUSH1 0x40 DUP4 ADD DUP6 PUSH2 0x362 JUMP JUMPDEST PUSH2 0x45C PUSH1 0x60 DUP4 ADD DUP5 PUSH2 0x362 JUMP JUMPDEST SWAP6 SWAP5 POP POP POP POP POP JUMP JUMPDEST PUSH2 0x46E DUP2 PUSH2 0x402 JUMP JUMPDEST DUP2 EQ PUSH2 0x478 JUMPI PUSH0 DUP1 REVERT JUMPDEST POP JUMP JUMPDEST PUSH0 DUP2 CALLDATALOAD SWAP1 POP PUSH2 0x489 DUP2 PUSH2 0x465 JUMP JUMPDEST SWAP3 SWAP2 POP POP JUMP JUMPDEST PUSH0 PUSH1 0x20 DUP3 DUP5 SUB SLT ISZERO PUSH2 0x4A4 JUMPI PUSH2 0x4A3 PUSH2 0x38A JUMP JUMPDEST JUMPDEST PUSH0 PUSH2 0x4B1 DUP5 DUP3 DUP6 ADD PUSH2 0x47B JUMP JUMPDEST SWAP2 POP POP SWAP3 SWAP2 POP POP JUMP JUMPDEST PUSH0 DUP3 DUP3 MSTORE PUSH1 0x20 DUP3 ADD SWAP1 POP SWAP3 SWAP2 POP POP JUMP JUMPDEST PUSH32 0x496E646578206F7574206F6620626F756E647300000000000000000000000000 PUSH0 DUP3 ADD MSTORE POP JUMP JUMPDEST PUSH0 PUSH2 0x4FE PUSH1 0x13 DUP4 PUSH2 0x4BA JUMP JUMPDEST SWAP2 POP PUSH2 0x509 DUP3 PUSH2 0x4CA JUMP JUMPDEST PUSH1 0x20 DUP3 ADD SWAP1 POP SWAP2 SWAP1 POP JUMP JUMPDEST PUSH0 PUSH1 0x20 DUP3 ADD SWAP1 POP DUP2 DUP2 SUB PUSH0 DUP4 ADD MSTORE PUSH2 0x52B DUP2 PUSH2 0x4F2 JUMP JUMPDEST SWAP1 POP SWAP2 SWAP1 POP JUMP JUMPDEST PUSH32 0x4E487B7100000000000000000000000000000000000000000000000000000000 PUSH0 MSTORE PUSH1 0x32 PUSH1 0x4 MSTORE PUSH1 0x24 PUSH0 REVERT JUMPDEST PUSH32 0x5472616E73616374696F6E20616D6F756E74206D757374206265206772656174 PUSH0 DUP3 ADD MSTORE PUSH32 0x6572207468616E207A65726F0000000000000000000000000000000000000000 PUSH1 0x20 DUP3 ADD MSTORE POP JUMP JUMPDEST PUSH0 PUSH2 0x5B9 PUSH1 0x2C DUP4 PUSH2 0x4BA JUMP JUMPDEST SWAP2 POP PUSH2 0x5C4 DUP3 PUSH2 0x55F JUMP JUMPDEST PUSH1 0x40 DUP3 ADD SWAP1 POP SWAP2 SWAP1 POP JUMP JUMPDEST PUSH0 PUSH1 0x20 DUP3 ADD SWAP1 POP DUP2 DUP2 SUB PUSH0 DUP4 ADD MSTORE PUSH2 0x5E6 DUP2 PUSH2 0x5AD JUMP JUMPDEST SWAP1 POP SWAP2 SWAP1 POP JUMP JUMPDEST PUSH0 PUSH1 0x40 DUP3 ADD SWAP1 POP PUSH2 0x600 PUSH0 DUP4 ADD DUP6 PUSH2 0x362 JUMP JUMPDEST PUSH2 0x60D PUSH1 0x20 DUP4 ADD DUP5 PUSH2 0x362 JUMP JUMPDEST SWAP4 SWAP3 POP POP POP JUMP INVALID LOG2 PUSH5 0x6970667358 0x22 SLT KECCAK256 0x21 0x2F 0xF7 PC 0xE6 STATICCALL 0x2C SWAP15 0xC4 JUMPI 0xAA 0xE3 CODECOPY JUMPI PUSH32 0xACC1EABE7116DF8A15E077105266F63F3C64736F6C634300081A003300000000 "
				},
				"gasEstimates": {
					"creation": {
						"codeDepositCost": "322000",
						"executionCost": "360",
						"totalCost": "322360"
					},
					"external": {
						"getTransaction(uint256)": "infinite",
						"getTransactionCount()": "2418",
						"recordTransaction(address)": "infinite"
					}
				},
				"methodIdentifiers": {
					"getTransaction(uint256)": "33ea3dc8",
					"getTransactionCount()": "2e7700f0",
					"recordTransaction(address)": "abfbd2dc"
				}
			},
			"storageLayout": {
				"storage": [
					{
						"astId": 14,
						"contract": "Assignment 2/q9.sol:TransactionLedger",
						"label": "transactions",
						"offset": 0,
						"slot": "0",
						"type": "t_array(t_struct(Transaction)10_storage)dyn_storage"
					}
				],
				"types": {
					"t_address": {
						"encoding": "inplace",
						"label": "address",
						"numberOfBytes": "20"
					},
					"t_array(t_struct(Transaction)10_storage)dyn_storage": {
						"base": "t_struct(Transaction)10_storage",
						"encoding": "dynamic_array",
						"label": "struct TransactionLedger.Transaction[]",
						"numberOfBytes": "32"
					},
					"t_struct(Transaction)10_storage": {
						"encoding": "inplace",
						"label": "struct TransactionLedger.Transaction",
						"members": [
							{
								"astId": 3,
								"contract": "Assignment 2/q9.sol:TransactionLedger",
								"label": "sender",
								"offset": 0,
								"slot": "0",
								"type": "t_address"
							},
							{
								"astId": 5,
								"contract": "Assignment 2/q9.sol:TransactionLedger",
								"label": "receiver",
								"offset": 0,
								"slot": "1",
								"type": "t_address"
							},
							{
								"astId": 7,
								"contract": "Assignment 2/q9.sol:TransactionLedger",
								"label": "amount",
								"offset": 0,
								"slot": "2",
								"type": "t_uint256"
							},
							{
								"astId": 9,
								"contract": "Assignment 2/q9.sol:TransactionLedger",
								"label": "timestamp",
								"offset": 0,
								"slot": "3",
								"type": "t_uint256"
							}
						],
						"numberOfBytes": "128"
					},
					"t_uint256": {
						"encoding": "inplace",
						"label": "uint256",
						"numberOfBytes": "32"
					}
				}
			},
			"userdoc": {
				"kind": "user",
				"methods": {},
				"version": 1
			}
		}
	}
}